:10092C0048454C4C4F20574F524C440049324320C1
:09093C00574F524B494E47210070
:0E0839007E001208477F301208FE7F0A7E0004
:10084700E4FDFCC3ED9FEE6480F8EC6480985015DE
:10085700E4FBFA0BBB00010AEB64784A70F50DBDA7
:0508670000010C80DE21
:01086C002269
:07095E00D2A2120965D2A12B
:06096500E4FF0FBFFFFCE0
:01096B002269
:0D09880012095EC2A2120965C2A102096532
:0A09A100C2A2120960D2A202096589
:02086D00AE07D4
:10086F00E4FDC2A1120965EE30E703D38001C39204
:10087F00A2EE25E0FE120960C2A11209650DBD08A6
:0E088F00E1C2A112096512095EC2A10209654B
:10091300AC071209887F4012086DAF0412086D12EC
:0909230009A17F017E00020847D2
:0E08F000C281E954F0FF1208FEE9C454F0FF83
:1008FE00EF54F0FF120913D2827F027E00120847D6
:05090E00C2820208474F
:0E096C00A907C2801208F07F057E000208472E
:0E097A00A907D2801208F07F057E0002084710
:1008CB008B088A09890AAB08AA09A90A120945608B
:1008DB0013050AE50A7002050914F9120945FF12FE
:0508EB00097A80E22201
:10080000C280C281C2827FC81208397F301208FEBE
:100810007F0A1208397F201208407F2812096C7F56
:100820000812096C7F0112096C7F057E00120847CF
:090830000F12096C7F0C02096C27
:10089D007580FF75A0FF7FF47E01120847120800D6
:1008AD007F8012096C7BFF7A09792C1208CB7FC0EF
:0E08BD0012096C7BFF7A0979381208CB80FE95
:030000000209955D
:0C099500787FE4F6D8FD75810A02089D09
:10094500BB010689828A83E0225002E722BBFE02B0
:09095500E32289828A83E49322E3
:00000001FF
